:1000000000200020510000005700000057000000B1
:100010005700000057000000570000005700000084
:100020005700000057000000570000005700000074
:100030005700000057000000570000005700000064
:100040005700000057000000570000005700000054
:1000500000F022FAFFE7FEE7017070470180704769
:1000600001607047007870470088704700687047EB
:10007000704700F0F3F90138FDD1704770B5061CE8
:10008000802440250848FFF7EDFF0442FAD00648D7
:10009000FFF7E8FF0542F5D0311C0448FFF7DCFF0D
:1000A00070BC01BC0047C04604A0064007A0064043
:1000B00010B508480821FFF7CFFF20240548FFF7B7
:1000C000D1FF0442FAD00448FFF7CCFF10BC02BCB9
:1000D0000847C04604A0064007A00640F8B508211E
:1000E000061C1548FFF7B8FF144F3B68D90F5B1883
:1000F000012213405B1A3B601A4214D010482021A1
:10010000FFF7AEFF0024202502E0B44210DA0134EC
:100110000948FFF7A7FF2840F7D00A48FFF7A2FFDA
:10012000F8BC02BC084708482021FFF799FFE9E71F
:100130003B6801333B60F3E704A006400000002069
:1001400084F00F4007A0064088F00F4008B5034830
:100150002021FFF785FF08BC01BC004784F00F4059
:1001600008B503482021FFF77BFF08BC01BC00470E
:1001700088F00F4008B503488021FFF771FF08BCE5
:1001800001BC004784F00F4008B503488021FFF709
:1001900067FF08BC01BC004788F00F4038B5FF2559
:1001A000041C281C2040FFF769FF200A2840FFF7A5
:1001B00065FF200C2840FFF761FF200EFFF75EFF70
:1001C00038BC01BC0047C04638B5FFF771FF051CBD
:1001D000FFF76EFF041CFFF76BFF240200040443CB
:1001E000FFF766FF2C430006204338BC02BC0847DB
:1001F00010B5802424040748FFF738FF2042FAD0C6
:10020000802424040348FFF731FF2042FAD110BCB8
:1002100001BC004718E000E010B5041C007800287D
:1002200007D00134FFF72AFFFFF7E2FF207800280C
:10023000F7D10A20FFF722FFFFF7DAFF10BC01BC5D
:100240000047C04610B55C485C49FFF707FF5A48B5
:100250005B49FFF703FF10215A48FFF7FFFE5A489A
:10026000FFF704FF8021090101435748FFF7F8FE1B
:10027000802149005548FFF7F3FE5548FFF7F6FE89
:100280002023011C19435248FFF7EAFE8021490050
:100290005048FFF7E5FE4E48FFF7E8FE8023011CBB
:1002A00019434B48FFF7DCFE4B480A21FFF7D4FE09
:1002B0004A482421FFF7D0FE4948A021FFF7CCFE91
:1002C00002244848FFF7CEFE0442FAD010244548E5
:1002D000FFF7C8FE0442FAD103244248FFF7C2FEEA
:1002E000800820400228F8D13F480321FFF7B4FEE0
:1002F0003E484021FFF7B0FE20243A48FFF7B2FE07
:100300000442FAD040243748FFF7ACFE0442FAD04A
:1003100037483849FFF7A4FE31482021FFF79CFEFB
:1003200003243048FFF79EFE800820400328F8D1C0
:1003300031480221FFF794FE30493148FFF790FE23
:100340003048FFF793FE8024E400211C01432D4830
:10035000FFF786FE1C48FFF789FE211C01431A485F
:10036000FFF77EFED02128488900FFF779FED021D3
:1003700026488900FFF774FE25480021FFF76CFE30
:1003800024483421FFF768FE23480321FFF764FE69
:1003900022480C21FFF760FE21480421FFF760FE90
:1003A000012120484942FFF75BFE1D480521FFF768
:1003B00057FE10BC01BC00470E20054020C50000C0
:1003C00028D90000002005403880044014B00440C3
:1003D00094F00F401CB0044000500640014006401D
:1003E00000400640064006400440064005400640E6
:1003F000448004400000030148800440C010050010
:10040000048004403480044044A0044040A00440E0
:1004100000A0064001A006400AA0064003A0064036
:1004200010E000E014E000E030B5002912D0012314
:10043000094D41185B42FF2402785A402240920045
:10044000AA581B0A013053408842F5D1D84330BC2A
:1004500002BC08470020FAE7B405000008B5FFF722
:1004600089FEFFF7C5FEFFF78FFEFFF7C1FEF6E737
:1004700010B5FFF7E7FEFFF7BBFEFFF767FE14249A
:10048000FFF716FE013C0130FFF7F8FD002CF7D115
:10049000012010BC02BC0847F0B54F464646C0B428
:1004A0003F4CA544FFF7CEFEFFF750FEFFF7A0FE3E
:1004B000FFF78AFE041CFFF753FE3A4B9C4201D023
:1004C000FFF744FEFFF780FE80460190FFF77CFEB9
:1004D0008146201CFFF762FE0120334F002340427B
:1004E00001A9FF24CA5C424022409200BA58000A87
:1004F00001335040042BF5D1C043FFF74FFE48466F
:10050000FFF74CFEFFF760FE052844D00520FFF7FB
:1005100045FE42469608002402AD002E09D0FFF7A2
:1005200053FEA300E85001340520FFF737FEB44224
:10053000F5D1FFF729FEFFF747FE072801D0FFF7A7
:1005400005FE4346002B29D04246AC1801222B1C45
:100550005242FF2019785140014089007958120A0F
:1005600001334A40A342F5D1D24391450DD0FFF764
:10057000EDFD281CFFF77DFD01200C4B9D440CBCBC
:1005800090469946F0BC02BC0847FFF7F3FD0520F2
:10059000FFF704FEEDE7FFF7EDFDB7E70022E4E724
:1005A000F4BFFFFF78563412B40500000C40000081
:0405B0007047C0468A
:1005B40000000000963007772C610EEEBA510999BD
:1005C40019C46D078FF46A7035A563E9A395649E19
:1005D4003288DB0EA4B8DC791EE9D5E088D9D2973D
:1005E4002B4CB609BD7CB17E072DB8E7911DBF9099
:1005F4006410B71DF220B06A4871B9F3DE41BE84BD
:100604007DD4DA1AEBE4DD6D51B5D4F4C785D38318
:1006140056986C13C0A86B647AF962FDECC9658ABC
:100624004F5C0114D96C0663633D0FFAF50D088D18
:10063400C8206E3B5E10694CE44160D5727167A2BC
:10064400D1E4033C47D4044BFD850DD26BB50AA518
:10065400FAA8B5356C98B242D6C9BBDB40F9BCAC3C
:10066400E36CD832755CDF45CF0DD6DC593DD1AB98
:10067400AC30D9263A00DE518051D7C81661D0BFBC
:10068400B5F4B42123C4B3569995BACF0FA5BDB818
:100694009EB802280888055FB2D90CC624E90BB1BC
:1006A400877C6F2F114C6858AB1D61C13D2D66B618
:1006B4009041DC760671DB01BC20D2982A10D5EF7C
:1006C4008985B1711FB5B606A5E4BF9F33D4B8E8D8
:1006D400A2C9077834F9000F8EA8099618980EE17C
:1006E400BB0D6A7F2D3D6D08976C6491015C63E6D8
:1006F400F4516B6B62616C1CD83065854E0062F2FC
:10070400ED95066C7BA5011BC1F4088257C40FF557
:10071400C6D9B06550E9B712EAB8BE8B7C88B9FC7B
:10072400DF1DDD62492DDA15F37CD38C654CD4FBD7
:100734005861B24DCE51B53A7400BCA3E230BBD47B
:1007440041A5DF4AD795D83D6DC4D1A4FBF4D6D3D7
:100754006AE96943FCD96E34468867ADD0B860DA7B
:10076400732D0444E51D03335F4C0AAAC97C0DDDD7
:100774003C710550AA41022710100BBE86200CC9FB
:1007840025B56857B3856F2009D466B99FE461CE57
:100794000EF9DE5E98C9D9292298D0B0B4A8D7C77B
:1007A400173DB359810DB42E3B5CBDB7AD6CBAC0D7
:1007B4002083B8EDB6B3BF9A0CE2B6039AD2B174F3
:1007C4003947D5EAAF77D29D1526DB048316DC734F
:1007D400120B63E3843B64943E6A6D0DA85A6A7AF3
:1007E4000BCF0EE49DFF099327AE000AB19E077D4F
:1007F40044930FF0D2A3088768F2011EFEC2066973
:100804005D5762F7CB67658071366C19E7066B6ECE
:10081400761BD4FEE02BD3895A7ADA10CC4ADD67F2
:100824006FDFB9F9F9EFBE8E43BEB717D58EB0604E
:10083400E8A3D6D67E93D1A1C4C2D83852F2DF4FF2
:10084400F167BBD16757BCA6DD06B53F4B36B2484E
:10085400DA2B0DD84C1B0AAFF64A0336607A0441F2
:10086400C3EF60DF55DF67A8EF8E6E3179BE69464E
:100874008CB361CB1A8366BCA0D26F2536E2685272
:1008840095770CCC03470BBBB91602222F260555CE
:10089400BE3BBAC5280BBDB2925AB42B046AB35CF2
:1008A400A7FFD7C231CFD0B58B9ED92C1DAEDE5B4E
:1008B400B0C2649B26F263EC9CA36A750A936D0232
:1008C400A906099C3F360EEB85670772135700058E
:1008D400824ABF95147AB8E2AE2BB17B381BB60CB2
:1008E4009B8ED2920DBED5E5B7EFDC7C21DFDB0B0E
:1008F400D4D2D38642E2D4F1F8B3DD686E83DA1F32
:10090400CD16BE815B26B9F6E177B06F7747B7188D
:10091400E65A0888706A0FFFCA3B06665C0B011131
:10092400FF9E658F69AE62F8D3FF6B6145CF6C168D
:1009340078E20AA0EED20DD75483044EC2B3033931
:10094400612667A7F71660D04D476949DB776E3E8D
:100954004A6AD1AEDC5AD6D9660BDF40F03BD837B1
:1009640053AEBCA9C59EBBDE7FCFB247E9FFB5300D
:100974001CF2BDBD8AC2BACA3093B353A6A3B42431
:100984000536D0BA9306D7CD2957DE54BF67D9238D
:100994002E7A66B3B84A61C4021B685D942B6F2A31
:1009A40037BE0BB4A18E0CC31BDF055A8DEF022D8D
:00000001FF
