:1000000000200020510000005700000057000000B1
:100010005700000057000000570000005700000084
:100020005700000057000000570000005700000074
:10003000570000005700000057000000A10000001A
:100040005700000057000000570000005700000054
:1000500000F0D0F8FFE7FEE70170704701807047BD
:1000600001607047007870470088704700687047EB
:1000700070470138FDD1704708B503484021FFF7AC
:10008000EFFF08BC01BC004784F00F4008B50348EF
:100090004021FFF7E5FF08BC01BC004788F00F4096
:1000A000024B1A6801321A607047C04600000020F7
:1000B000034B1B6882B00193019802B07047C046A1
:1000C0000000002000B5074A136883B00093009930
:1000D00013680193019B5B1A8342F9D303B001BCFF
:1000E0000047C0460000002000B5064A136883B0F0
:1000F0000193019913680093009B9942FAD003B0D1
:1001000001BC00470000002000B5074A136883B017
:100110000193019913680093009B5B1A012BF9D995
:1001200003B001BC0047C0460000002010B50F48D6
:1001300084B04021FFF794FF0D4C23680193019A8E
:1001400023680093009B9A42FAD00A484021FFF7A7
:1001500087FF23680393039A23680293029B9B1AE9
:10016000012BF9D904B010BC01BC004784F00F404A
:100170000000002088F00F4010B50F4884B04021E7
:10018000FFF76EFF0D4C23680193019A23680093DB
:10019000009B9B1A012BF9D909484021FFF760FF0A
:1001A00023680393039A23680293029B9A42FAD02E
:1001B00004B010BC01BC004784F00F4000000020D8
:1001C00088F00F4000B5402183B00848FFF748FF92
:1001D000074A13680193019913680093009B5B1A07
:1001E000952BF9D903B001BC0047C04688F00F40F9
:1001F0000000002030B5624885B06249FFF72EFF4D
:100200005F486149FFF72AFF10216048FFF726FF8A
:100210005F48FFF72BFF8021090101435C48FFF78E
:100220001FFF802149005B48FFF71AFF5A48FFF77C
:100230001DFF2023011C19435748FFF711FF8021A0
:1002400049005648FFF70CFF5348FFF70FFF4023C4
:10025000011C19435048FFF703FF51480A21FFF7DB
:10026000FBFE50482421FFF7F7FE4F48A021FFF77F
:10027000F3FE02244D48FFF7F5FE0442FAD01024A5
:100280004A48FFF7EFFE0442FAD103244748FFF73C
:10029000E9FE83082340022BF8D145480321FFF7EC
:1002A000DBFE44484021FFF7D7FE20243F48FFF7FC
:1002B000D9FE0442FAD040243C48FFF7D3FE044262
:1002C000FAD03D483D49FFF7CBFE37482021FFF7E4
:1002D000C3FE03243548FFF7C5FE83082340032BE4
:1002E000F8D137480221FFF7BBFE36483649FFF701
:1002F000B7FE36482321FFF7B3FE35480721FFF745
:10030000AFFE344C23680193019A334B216800916E
:100310000099891A9942F9D930482021FFF7A0FEA7
:1003200023680393039A2E4B216802910299891A3C
:100330009942F9D92B482021FFF792FEFFF742FF9F
:1003400003250824013CFFF7F1FEFFF7EFFE002C28
:10035000F8D10824013CFFF70FFFFFF70DFF002C39
:10036000F8D10824013CFFF7E1FEFFF7DFFE002C87
:10037000F8D1013D002DE4D1FFF724FFDEE7C046B0
:100380000E20054020C5000028D9000000200540AF
:100390003880044014B0044094F00F4018B004407A
:1003A000005006400140064000400640064006401E
:1003B000044006400540064044800440000003011C
:1003C0004880044004800440C010050014E000E0B0
:1003D00010E000E0000000200F27000084F00F4034
:0803E0003F5DC60088F00F40EC
:00000001FF
