:1000000000200020510000005700000057000000B1
:100010005700000057000000570000005700000084
:100020005700000057000000570000005700000074
:100030005700000057000000570000007900000042
:100040005700000057000000570000005700000054
:1000500000F034F8FFE7FEE7017070470180704759
:1000600001607047007870470088704700687047EB
:1000700070470138FDD17047024B1A6801321A608F
:100080007047C04600000020034B1B6882B00193FC
:10009000019802B07047C0460000002000B5064A33
:1000A000116883B013680193019B5B1A8342F9D3F3
:1000B00003B001BC0047C0460000002030B54948ED
:1000C00083B04949FFF7CAFF46484849FFF7C6FFD2
:1000D00010214748FFF7C2FF4648FFF7C7FF8021BE
:1000E000090101434348FFF7BBFF80214900424813
:1000F000FFF7B6FF4148FFF7B9FF2023011C194362
:100100003E48FFF7ADFF3E480A21FFF7A5FF3D48F7
:100110002421FFF7A1FF3C48A021FFF79DFF022407
:100120003A48FFF79FFF0442FAD010243748FFF700
:1001300099FF0442FAD103243448FFF793FF830860
:100140002340022BF8D132480321FFF785FF3148C5
:100150004021FFF781FF20242C48FFF783FF044252
:10016000FAD040242948FFF77DFF0442FAD02A48FC
:100170002A49FFF775FF24482021FFF76DFF03246C
:100180002248FFF76FFF83082340032BF8D1244850
:100190000221FFF765FF23482349FFF761FF23484A
:1001A0002349FFF75DFF23480721FFF759FFF42597
:1001B000214CFF3521482021FFF752FF2268236898
:1001C0000093009B9B1AAB42F9D91D482021FFF7F1
:1001D00047FF226823680193019B9B1AAB42F9D920
:1001E000E8E7C0460E20054020C5000028D90000E1
:1001F000002005403880044014B0044094F00F40C3
:1002000000500640014006400040064006400640BF
:1002100004400640054006404480044000000301BD
:100220004880044004800440C010050014E000E051
:100230003F19010010E000E00000002084F00F40B2
:0402400088F00F40F3
:00000001FF
