:1000000000200020510000005700000057000000B1
:100010005700000057000000570000005700000084
:100020005700000057000000570000005700000074
:100030005700000057000000570000005700000064
:100040005700000057000000570000005700000054
:1000500000F058F8FFE7FEE7017070470180704735
:1000600001607047007870470088704700687047EB
:1000700070470138FDD1704738B580240625240427
:100080000748FFF7F3FF2042FAD00548FFF7EEFFDD
:100090002042FAD1013D002DF2D138BC01BC00470D
:1000A00018E000E070B5061C802440250848FFF7E2
:1000B000D9FF0442FAD00648FFF7D4FF0542F5D035
:1000C000311C0448FFF7C8FF70BC01BC0047C046A4
:1000D00004A0064007A0064010B5041C00780028C4
:1000E00007D00134FFF7DEFFFFF7C6FF20780028B6
:1000F000F7D10A20FFF7D6FFFFF7BEFF10BC01BC07
:100100000047C04610B554485449FFF7A7FF52486E
:100110005349FFF7A3FF10215248FFF79FFF5248B2
:10012000FFF7A4FF8021090101434F48FFF798FF23
:10013000802149004D48FFF793FF4D48FFF796FF98
:100140002023011C19434A48FFF78AFF49480A2126
:10015000FFF782FF48482421FFF77EFF4748A02190
:10016000FFF77AFF02244648FFF77CFF0442FAD0EB
:1001700010244348FFF776FF0442FAD10324404895
:10018000FFF770FF83082340022BF8D13D4803217D
:10019000FFF762FF3C484021FFF75EFF202438480C
:1001A000FFF760FF0442FAD040243548FFF75AFFBA
:1001B0000442FAD035483649FFF752FF2F48202134
:1001C000FFF74AFF03242E48FFF74CFF8308234024
:1001D000032BF8D12F480221FFF742FF2E492F4869
:1001E000FFF73EFF2E48FFF741FF8024E400211C6B
:1001F00001432B48FFF734FF1B48FFF737FF211C53
:1002000001431948FFF72CFFD02126488900FFF74A
:1002100027FF25480021FFF71FFF24483421FFF75F
:100220001BFF23480321FFF717FF22480821FFF790
:1002300013FF21480421FFF713FF01211F48494202
:10024000FFF70EFF1C480521FFF70AFF1C4C201C7E
:10025000FFF742FFFBE7C0460E20054020C5000027
:1002600028D90000002005403880044014B0044024
:1002700094F00F4000500640014006400040064008
:1002800006400640044006400540064044800440C5
:100290000000030148800440C010050004800440B1
:1002A0003480044044A0044000A0064001A0064061
:1002B0000AA0064003A0064010E000E014E000E0C1
:0402C000C402000074
:1002C40068656C6C6F20776F726C640A00000000C4
:00000001FF
