:1000000000200020510000005700000057000000B1
:100010005700000057000000570000005700000084
:100020005700000057000000570000005700000074
:100030005700000057000000570000005700000064
:100040005700000057000000570000005700000054
:1000500000F00CF8FFE7FEE7018070470160704791
:100060000068704770470138FDD1704708B51D48DA
:100070001D49FFF7F1FF1B481C49FFF7EDFF102159
:100080001B48FFF7E9FF1B48FFF7EAFF8021090142
:1000900001431848FFF7E2FF802149001648FFF7A7
:1000A000DDFF1648FFF7DCFF2023011C194313482E
:1000B000FFF7D4FF802149001148FFF7CFFF0F4819
:1000C000FFF7CEFF4023011C19430C48FFF7C6FF82
:1000D0000C482021FFF7C2FF0B484021FFF7BEFF6D
:1000E000F6E7C0460E20054020C5000028D90000D4
:1000F000002005403880044014B0044094F00F40C4
:0C01000018B0044084F00F408CF00F4059
:00000001FF
