:1000000000200020510000005700000057000000B1
:100010005700000057000000570000005700000084
:100020005700000057000000570000005700000074
:100030005700000057000000570000005700000064
:100040005700000057000000570000005700000054
:1000500000F00CF8FFE7FEE7018070470160704791
:100060000068704770470138FDD1704738B51E48A9
:100070001E49FFF7F1FF1C481D49FFF7EDFF102156
:100080001C48FFF7E9FF1C48FFF7EAFF8021090140
:1000900001431948FFF7E2FF802149001748FFF7A5
:1000A000DDFF1748FFF7DCFF2023011C194314482C
:1000B000FFF7D4FF13482021FFF7D0FF124D002493
:1000C000201C0134FFF7CEFFAC42F9D10F482021AC
:1000D000FFF7C4FF0C4D0024201C0134FFF7C2FFC2
:1000E000AC42F9D1E6E7C0460E20054020C500002D
:1000F00028D90000002005403880044014B0044096
:1001000094F00F4084F00F4040420F0088F00F4001
:00000001FF
