:1000000000200020510000005700000057000000B1
:100010005700000057000000570000005700000084
:100020005700000057000000570000005700000074
:100030005700000057000000570000005700000064
:100040005700000057000000570000005700000054
:1000500000F00CF8FFE7FEE7018070470160704791
:100060000068704770470138FDD1704738B51D48AA
:100070001D49FFF7F1FF1B481C49FFF7EDFF102159
:100080001B48FFF7E9FF1B48FFF7EAFF8021090142
:1000900001431848FFF7E2FF802149001648FFF7A7
:1000A000DDFF1648FFF7DCFF2023011C194313482E
:1000B000FFF7D4FF124D13482021FFF7CFFF002494
:1000C000201C0134FFF7CEFFAC42F9D10D482021AE
:1000D000FFF7C4FF0024201C0134FFF7C3FFAC422C
:1000E000F9D1E8E70E20054020C5000028D900001E
:1000F000002005403880044014B0044094F00F40C4
:0801000040420F008CF00F409B
:00000001FF
